S02700004F6E2D64656D616E642054726166666963206C6967687420636F6E74726F6C2E7372656372
S11300000C942A000C9476010C943C000C943C0053
S11300100C943C000C943C000C943C000C943C006C
S11300200C943C000C943C000C943C000C943C005C
S11300300C943C000C943C000C943C000C943C004C
S11300400C943C000C943C000C943C000C943C003C
S11300500C943C0011241FBECFE5D8E0DEBFCDBF19
S113006020E0A0E6B0E001C01D92A336B207E1F79C
S11300700E9495010C946A030C94000061E480E0F2
S11300800E94890161E481E00E94890161E482E0C7
S11300900E94890162E480E00E94890162E481E0B7
S11300A00E94890162E482E00E94890164E482E0A2
S11300B00E9485010E94B90278940E94B2020895B8
S11300C062E482E00E948D018091600081110DC084
S11300D01092610061E40E948D0188E893E10E941E
S11300E0BD0261E480E00E94910180916000811171
S11300F01FC081E0809361001092620015C061E42A
S113010081E00E948D0184EF91E00E94BD0261E4D0
S113011081E00E94910184EF91E00E94BD028091F0
S113012062008F5F8093620080916200853038F3B3
S11301308091600081111EC082E08093610061E4BF
S11301400E948D01109262000DC082E390E00E9433
S1130150BD0280916000813081F1809162008F5FE7
S11301608093620080916200843678F361E482E0D7
S11301700E9491018091600081111FC081E08093F1
S113018061001092620015C061E481E00E948D015B
S113019084EF91E00E94BD0261E481E00E9491013C
S11301A084EF91E00E94BD02809162008F5F809392
S11301B0620080916200853038F3089561E482E042
S11301C00E949101109262001DC061E481E00E94CE
S11301D08D0162E481E00E948D0184EF91E00E9430
S11301E0BD0261E481E00E94910162E481E00E9429
S11301F0910184EF91E00E94BD02809162008F5FC3
S113020080936200809162008530F8F262E480E0BD
S11302100E94910162E482E00E948D0110926000CC
S1130220089562E482E00E94910162E480E00E9409
S11302308D0161E482E00E948D0188E893E10E94CF
S1130240BD020E94DE00089562E482E00E948D01F6
S1130250109262001DC061E481E00E948D0162E49D
S113026081E00E948D0184EF91E00E94BD0261E46F
S113027081E00E94910162E481E00E94910184EF97
S113028091E00E94BD02809162008F5F80936200C2
S1130290809162008530F8F262E482E00E9491016C
S11302A061E482E00E948D0162E480E00E948D019D
S11302B088E893E10E94BD020E94DE0008950E9436
S11302C0600080916000813031F48091610082305F
S11302D011F40E94110180916000813081F78091B6
S11302E06100823060F70E942401E9CF1F920F92CF
S11302F00FB60F9211248F9381E0809360008F9149
S11303000F900FBE0F901F90189540E00E949C0123
S1130310089541E00E949C01089541E00E94270253
S1130320089540E00E94270208950E943E000E9422
S11303305F0180E090E00895623459F118F461346B
S113034041F00895633409F444C0643409F460C08E
S1130350089541110EC04AB321E030E0B90102C052
S1130360660F771F8A95E2F7CB01809584238ABBB9
S11303700895413009F06AC04AB321E030E0B90180
S113038002C0660F771F8A95E2F7CB01842B8ABBE4
S1130390089541110EC047B321E030E0B90102C015
S11303A0660F771F8A95E2F7CB018095842387BB7C
S11303B00895413009F04AC047B321E030E0B90163
S11303C002C0660F771F8A95E2F7CB01842B87BBA7
S11303D0089541110EC044B321E030E0B90102C0D8
S11303E0660F771F8A95E2F7CB018095842384BB3F
S11303F00895413059F544B321E030E0B90102C019
S1130400660F771F8A95E2F7CB01842B84BB08958E
S113041041110EC041B321E030E0B90102C0660FC2
S1130420771F8A95E2F7CB018095842381BB0895D9
S1130430413061F441B321E030E0B90102C0660FFC
S1130440771F8A95E2F7CB01842B81BB0895623430
S113045059F118F4613441F00895633409F444C047
S1130460643409F460C0089541110EC04BB321E017
S113047030E0B90102C0660F771F8A95E2F7CB011D
S1130480809584238BBB0895413009F06AC04BB337
S113049021E030E0B90102C0660F771F8A95E2F7C8
S11304A0CB01842B8BBB089541110EC048B321E0CE
S11304B030E0B90102C0660F771F8A95E2F7CB01DD
S11304C08095842388BB0895413009F04AC048B31D
S11304D021E030E0B90102C0660F771F8A95E2F788
S11304E0CB01842B88BB089541110EC045B321E094
S11304F030E0B90102C0660F771F8A95E2F7CB019D
S11305008095842385BB0895413059F545B321E096
S113051030E0B90102C0660F771F8A95E2F7CB017C
S1130520842B85BB089541110EC042B321E030E015
S1130530B90102C0660F771F8A95E2F7CB01809557
S1130540842382BB0895413061F442B321E030E05A
S1130550B90102C0660F771F8A95E2F7CB01842B9D
S113056082BB089585B7836085BF8BB780648BBFDA
S1130570089513BE089513BE0895CF93DF93EC013D
S11305809C01369527953695279536952795A5ECA4
S1130590B0E20E943903BC01729562956F706727BF
S11305A07F70672781E090E00E9406039B0100248E
S11305B0369527950794369527950794322F202D45
S11305C040E050E060E472E48FE090E00E941A039F
S11305D0AE01529542954F7045275F70452721958E
S11305E022BF83E083BF20E030E008C008B600FEED
S11305F0FDCF98B7916098BF2F5F3F4F42175307C5
S1130600A8F70E94BB02DF91CF910895AA1BBB1BE0
S113061051E107C0AA1FBB1FA617B70710F0A61BFE
S1130620B70B881F991F5A95A9F780959095BC011F
S1130630CD010895052E97FB1EF400940E9431030A
S113064057FD07D00E94480307FC03D04EF40C94D6
S1130650310350954095309521953F4F4F4F5F4F53
S1130660089590958095709561957F4F8F4F9F4F1A
S11306700895A29FB001B39FC001A39F700D811D77
S11306801124911DB29F700D811D1124911D089597
S1130690A1E21A2EAA1BBB1BFD010DC0AA1FBB1F82
S11306A0EE1FFF1FA217B307E407F50720F0A21BF4
S11306B0B30BE40BF50B661F771F881F991F1A9461
S11306C069F760957095809590959B01AC01BD018B
S10B06D0CF010895F894FFCF57
S9030000FC
